{
  "contractName": "YossiToken",
  "abi": [
    {
      "inputs": [],
      "stateMutability": "nonpayable",
      "type": "constructor"
    },
    {
      "anonymous": false,
      "inputs": [
        {
          "indexed": true,
          "internalType": "address",
          "name": "owner",
          "type": "address"
        },
        {
          "indexed": true,
          "internalType": "address",
          "name": "spender",
          "type": "address"
        },
        {
          "indexed": false,
          "internalType": "uint256",
          "name": "value",
          "type": "uint256"
        }
      ],
      "name": "Approval",
      "type": "event"
    },
    {
      "anonymous": false,
      "inputs": [
        {
          "indexed": true,
          "internalType": "address",
          "name": "from",
          "type": "address"
        },
        {
          "indexed": true,
          "internalType": "address",
          "name": "to",
          "type": "address"
        },
        {
          "indexed": false,
          "internalType": "uint256",
          "name": "value",
          "type": "uint256"
        }
      ],
      "name": "Transfer",
      "type": "event"
    },
    {
      "stateMutability": "nonpayable",
      "type": "fallback"
    },
    {
      "inputs": [],
      "name": "_name",
      "outputs": [
        {
          "internalType": "string",
          "name": "",
          "type": "string"
        }
      ],
      "stateMutability": "view",
      "type": "function",
      "constant": true
    },
    {
      "inputs": [],
      "name": "_totalSupply",
      "outputs": [
        {
          "internalType": "uint256",
          "name": "",
          "type": "uint256"
        }
      ],
      "stateMutability": "view",
      "type": "function",
      "constant": true
    },
    {
      "inputs": [
        {
          "internalType": "uint256",
          "name": "a",
          "type": "uint256"
        },
        {
          "internalType": "uint256",
          "name": "b",
          "type": "uint256"
        }
      ],
      "name": "safeAdd",
      "outputs": [
        {
          "internalType": "uint256",
          "name": "c",
          "type": "uint256"
        }
      ],
      "stateMutability": "pure",
      "type": "function",
      "constant": true
    },
    {
      "inputs": [
        {
          "internalType": "uint256",
          "name": "a",
          "type": "uint256"
        },
        {
          "internalType": "uint256",
          "name": "b",
          "type": "uint256"
        }
      ],
      "name": "safeDiv",
      "outputs": [
        {
          "internalType": "uint256",
          "name": "c",
          "type": "uint256"
        }
      ],
      "stateMutability": "pure",
      "type": "function",
      "constant": true
    },
    {
      "inputs": [
        {
          "internalType": "uint256",
          "name": "a",
          "type": "uint256"
        },
        {
          "internalType": "uint256",
          "name": "b",
          "type": "uint256"
        }
      ],
      "name": "safeMul",
      "outputs": [
        {
          "internalType": "uint256",
          "name": "c",
          "type": "uint256"
        }
      ],
      "stateMutability": "pure",
      "type": "function",
      "constant": true
    },
    {
      "inputs": [
        {
          "internalType": "uint256",
          "name": "a",
          "type": "uint256"
        },
        {
          "internalType": "uint256",
          "name": "b",
          "type": "uint256"
        }
      ],
      "name": "safeSub",
      "outputs": [
        {
          "internalType": "uint256",
          "name": "c",
          "type": "uint256"
        }
      ],
      "stateMutability": "pure",
      "type": "function",
      "constant": true
    },
    {
      "inputs": [],
      "name": "symbol",
      "outputs": [
        {
          "internalType": "string",
          "name": "",
          "type": "string"
        }
      ],
      "stateMutability": "view",
      "type": "function",
      "constant": true
    },
    {
      "inputs": [],
      "name": "name",
      "outputs": [
        {
          "internalType": "string",
          "name": "",
          "type": "string"
        }
      ],
      "stateMutability": "view",
      "type": "function",
      "constant": true
    },
    {
      "inputs": [],
      "name": "totalSupply",
      "outputs": [
        {
          "internalType": "uint256",
          "name": "",
          "type": "uint256"
        }
      ],
      "stateMutability": "view",
      "type": "function",
      "constant": true
    },
    {
      "inputs": [
        {
          "internalType": "address",
          "name": "tokenOwner",
          "type": "address"
        }
      ],
      "name": "balanceOf",
      "outputs": [
        {
          "internalType": "uint256",
          "name": "",
          "type": "uint256"
        }
      ],
      "stateMutability": "view",
      "type": "function",
      "constant": true
    },
    {
      "inputs": [
        {
          "internalType": "address",
          "name": "to",
          "type": "address"
        },
        {
          "internalType": "uint256",
          "name": "value",
          "type": "uint256"
        }
      ],
      "name": "transfer",
      "outputs": [
        {
          "internalType": "bool",
          "name": "",
          "type": "bool"
        }
      ],
      "stateMutability": "nonpayable",
      "type": "function"
    },
    {
      "inputs": [
        {
          "internalType": "address",
          "name": "owner",
          "type": "address"
        },
        {
          "internalType": "address",
          "name": "spender",
          "type": "address"
        }
      ],
      "name": "allowance",
      "outputs": [
        {
          "internalType": "uint256",
          "name": "",
          "type": "uint256"
        }
      ],
      "stateMutability": "view",
      "type": "function",
      "constant": true
    },
    {
      "inputs": [
        {
          "internalType": "address",
          "name": "spender",
          "type": "address"
        },
        {
          "internalType": "uint256",
          "name": "value",
          "type": "uint256"
        }
      ],
      "name": "approve",
      "outputs": [
        {
          "internalType": "bool",
          "name": "",
          "type": "bool"
        }
      ],
      "stateMutability": "nonpayable",
      "type": "function"
    },
    {
      "inputs": [
        {
          "internalType": "address",
          "name": "from",
          "type": "address"
        },
        {
          "internalType": "address",
          "name": "to",
          "type": "address"
        },
        {
          "internalType": "uint256",
          "name": "value",
          "type": "uint256"
        }
      ],
      "name": "transferFrom",
      "outputs": [
        {
          "internalType": "bool",
          "name": "",
          "type": "bool"
        }
      ],
      "stateMutability": "nonpayable",
      "type": "function"
    }
  ],
  "bytecode": "0x60806040526000600460006101000a81548160ff021916908360ff1602179055503480156200002d57600080fd5b506040518060400160405280600a81526020017f596f737369546f6b656e00000000000000000000000000000000000000000000815250600290805190602001906200007b929190620001a6565b506040518060400160405280600481526020017f595443320000000000000000000000000000000000000000000000000000000081525060039080519060200190620000c9929190620001a6565b506000600460006101000a81548160ff021916908360ff160217905550620186a0600081905550600054600560003373ffffffffffffffffffffffffffffffffffffffff1673ffffffffffffffffffffffffffffffffffffffff168152602001908152602001600020819055503373ffffffffffffffffffffffffffffffffffffffff16600073ffffffffffffffffffffffffffffffffffffffff167fddf252ad1be2c89b69c2b068fc378daa952ba7f163c4a11628f55a4df523b3ef60005460405162000198919062000271565b60405180910390a3620002f3565b828054620001b490620002bd565b90600052602060002090601f016020900481019282620001d8576000855562000224565b82601f10620001f357805160ff191683800117855562000224565b8280016001018555821562000224579182015b828111156200022357825182559160200191906001019062000206565b5b50905062000233919062000237565b5090565b5b808211156200025257600081600090555060010162000238565b5090565b6000819050919050565b6200026b8162000256565b82525050565b600060208201905062000288600083018462000260565b92915050565b7f4e487b7100000000000000000000000000000000000000000000000000000000600052602260045260246000fd5b60006002820490506001821680620002d657607f821691505b60208210811415620002ed57620002ec6200028e565b5b50919050565b61124180620003036000396000f3fe608060405234801561001057600080fd5b50600436106100ee5760003560e01c8063a293d1e81161008c578063d05c78da11610066578063d05c78da14610289578063d28d8852146102b9578063dd62ed3e146102d7578063e6cb901314610307576100ef565b8063a293d1e8146101f9578063a9059cbb14610229578063b5931f7c14610259576100ef565b806323b872dd116100c857806323b872dd1461015d5780633eaaf86b1461018d57806370a08231146101ab57806395d89b41146101db576100ef565b806306fdde03146100f1578063095ea7b31461010f57806318160ddd1461013f576100ef565b5b005b6100f9610337565b6040516101069190610ddc565b60405180910390f35b61012960048036038101906101249190610e97565b6103c9565b6040516101369190610ef2565b60405180910390f35b6101476104f4565b6040516101549190610f1c565b60405180910390f35b61017760048036038101906101729190610f37565b6104fd565b6040516101849190610ef2565b60405180910390f35b6101956108a2565b6040516101a29190610f1c565b60405180910390f35b6101c560048036038101906101c09190610f8a565b6108a8565b6040516101d29190610f1c565b60405180910390f35b6101e36108f1565b6040516101f09190610ddc565b60405180910390f35b610213600480360381019061020e9190610fb7565b61097f565b6040516102209190610f1c565b60405180910390f35b610243600480360381019061023e9190610e97565b6109a2565b6040516102509190610ef2565b60405180910390f35b610273600480360381019061026e9190610fb7565b610bb1565b6040516102809190610f1c565b60405180910390f35b6102a3600480360381019061029e9190610fb7565b610bd3565b6040516102b09190610f1c565b60405180910390f35b6102c1610c0b565b6040516102ce9190610ddc565b60405180910390f35b6102f160048036038101906102ec9190610ff7565b610c99565b6040516102fe9190610f1c565b60405180910390f35b610321600480360381019061031c9190610fb7565b610d20565b60405161032e9190610f1c565b60405180910390f35b60606002805461034690611066565b80601f016020809104026020016040519081016040528092919081815260200182805461037290611066565b80156103bf5780601f10610394576101008083540402835291602001916103bf565b820191906000526020600020905b8154815290600101906020018083116103a257829003601f168201915b5050505050905090565b60008073ffffffffffffffffffffffffffffffffffffffff168373ffffffffffffffffffffffffffffffffffffffff16141561040457600080fd5b81600660003373ffffffffffffffffffffffffffffffffffffffff1673ffffffffffffffffffffffffffffffffffffffff16815260200190815260200160002060008573ffffffffffffffffffffffffffffffffffffffff1673ffffffffffffffffffffffffffffffffffffffff168152602001908152602001600020819055508273ffffffffffffffffffffffffffffffffffffffff163373ffffffffffffffffffffffffffffffffffffffff167f8c5be1e5ebec7d5bd14f71427d1e84f3dd0314c0f7b2291e5b200ac8c7c3b925846040516104e29190610f1c565b60405180910390a36001905092915050565b60008054905090565b6000600560008573ffffffffffffffffffffffffffffffffffffffff1673ffffffffffffffffffffffffffffffffffffffff1681526020019081526020016000205482111561054b57600080fd5b600660008573ffffffffffffffffffffffffffffffffffffffff1673ffffffffffffffffffffffffffffffffffffffff16815260200190815260200160002060003373ffffffffffffffffffffffffffffffffffffffff1673ffffffffffffffffffffffffffffffffffffffff168152602001908152602001600020548211156105d457600080fd5b600073ffffffffffffffffffffffffffffffffffffffff168373ffffffffffffffffffffffffffffffffffffffff16141561060e57600080fd5b81600560008673ffffffffffffffffffffffffffffffffffffffff1673ffffffffffffffffffffffffffffffffffffffff1681526020019081526020016000205461065991906110c7565b600560008673ffffffffffffffffffffffffffffffffffffffff1673ffffffffffffffffffffffffffffffffffffffff1681526020019081526020016000208190555081600560008573ffffffffffffffffffffffffffffffffffffffff1673ffffffffffffffffffffffffffffffffffffffff168152602001908152602001600020546106e791906110fb565b600560008573ffffffffffffffffffffffffffffffffffffffff1673ffffffffffffffffffffffffffffffffffffffff1681526020019081526020016000208190555081600660008673ffffffffffffffffffffffffffffffffffffffff1673ffffffffffffffffffffffffffffffffffffffff16815260200190815260200160002060003373ffffffffffffffffffffffffffffffffffffffff1673ffffffffffffffffffffffffffffffffffffffff168152602001908152602001600020546107b291906110c7565b600660008673ffffffffffffffffffffffffffffffffffffffff1673ffffffffffffffffffffffffffffffffffffffff16815260200190815260200160002060003373ffffffffffffffffffffffffffffffffffffffff1673ffffffffffffffffffffffffffffffffffffffff168152602001908152602001600020819055508273ffffffffffffffffffffffffffffffffffffffff168473ffffffffffffffffffffffffffffffffffffffff167fddf252ad1be2c89b69c2b068fc378daa952ba7f163c4a11628f55a4df523b3ef8460405161088f9190610f1c565b60405180910390a3600190509392505050565b60005481565b6000600560008373ffffffffffffffffffffffffffffffffffffffff1673ffffffffffffffffffffffffffffffffffffffff168152602001908152602001600020549050919050565b600380546108fe90611066565b80601f016020809104026020016040519081016040528092919081815260200182805461092a90611066565b80156109775780601f1061094c57610100808354040283529160200191610977565b820191906000526020600020905b81548152906001019060200180831161095a57829003601f168201915b505050505081565b60008282111561098e57600080fd5b818361099a91906110c7565b905092915050565b6000600560003373ffffffffffffffffffffffffffffffffffffffff1673ffffffffffffffffffffffffffffffffffffffff168152602001908152602001600020548211156109f057600080fd5b600073ffffffffffffffffffffffffffffffffffffffff168373ffffffffffffffffffffffffffffffffffffffff161415610a2a57600080fd5b610a73600560003373ffffffffffffffffffffffffffffffffffffffff1673ffffffffffffffffffffffffffffffffffffffff168152602001908152602001600020548361097f565b600560003373ffffffffffffffffffffffffffffffffffffffff1673ffffffffffffffffffffffffffffffffffffffff16815260200190815260200160002081905550610aff600560008573ffffffffffffffffffffffffffffffffffffffff1673ffffffffffffffffffffffffffffffffffffffff1681526020019081526020016000205483610d20565b600560008573ffffffffffffffffffffffffffffffffffffffff1673ffffffffffffffffffffffffffffffffffffffff168152602001908152602001600020819055508273ffffffffffffffffffffffffffffffffffffffff163373ffffffffffffffffffffffffffffffffffffffff167fddf252ad1be2c89b69c2b068fc378daa952ba7f163c4a11628f55a4df523b3ef84604051610b9f9190610f1c565b60405180910390a36001905092915050565b6000808211610bbf57600080fd5b8183610bcb9190611180565b905092915050565b60008183610be191906111b1565b90506000831480610bfc5750818382610bfa9190611180565b145b610c0557600080fd5b92915050565b60028054610c1890611066565b80601f0160208091040260200160405190810160405280929190818152602001828054610c4490611066565b8015610c915780601f10610c6657610100808354040283529160200191610c91565b820191906000526020600020905b815481529060010190602001808311610c7457829003601f168201915b505050505081565b6000600660008473ffffffffffffffffffffffffffffffffffffffff1673ffffffffffffffffffffffffffffffffffffffff16815260200190815260200160002060008373ffffffffffffffffffffffffffffffffffffffff1673ffffffffffffffffffffffffffffffffffffffff16815260200190815260200160002054905092915050565b60008183610d2e91906110fb565b905082811015610d3d57600080fd5b92915050565b600081519050919050565b600082825260208201905092915050565b60005b83811015610d7d578082015181840152602081019050610d62565b83811115610d8c576000848401525b50505050565b6000601f19601f8301169050919050565b6000610dae82610d43565b610db88185610d4e565b9350610dc8818560208601610d5f565b610dd181610d92565b840191505092915050565b60006020820190508181036000830152610df68184610da3565b905092915050565b600080fd5b600073ffffffffffffffffffffffffffffffffffffffff82169050919050565b6000610e2e82610e03565b9050919050565b610e3e81610e23565b8114610e4957600080fd5b50565b600081359050610e5b81610e35565b92915050565b6000819050919050565b610e7481610e61565b8114610e7f57600080fd5b50565b600081359050610e9181610e6b565b92915050565b60008060408385031215610eae57610ead610dfe565b5b6000610ebc85828601610e4c565b9250506020610ecd85828601610e82565b9150509250929050565b60008115159050919050565b610eec81610ed7565b82525050565b6000602082019050610f076000830184610ee3565b92915050565b610f1681610e61565b82525050565b6000602082019050610f316000830184610f0d565b92915050565b600080600060608486031215610f5057610f4f610dfe565b5b6000610f5e86828701610e4c565b9350506020610f6f86828701610e4c565b9250506040610f8086828701610e82565b9150509250925092565b600060208284031215610fa057610f9f610dfe565b5b6000610fae84828501610e4c565b91505092915050565b60008060408385031215610fce57610fcd610dfe565b5b6000610fdc85828601610e82565b9250506020610fed85828601610e82565b9150509250929050565b6000806040838503121561100e5761100d610dfe565b5b600061101c85828601610e4c565b925050602061102d85828601610e4c565b9150509250929050565b7f4e487b7100000000000000000000000000000000000000000000000000000000600052602260045260246000fd5b6000600282049050600182168061107e57607f821691505b6020821081141561109257611091611037565b5b50919050565b7f4e487b7100000000000000000000000000000000000000000000000000000000600052601160045260246000fd5b60006110d282610e61565b91506110dd83610e61565b9250828210156110f0576110ef611098565b5b828203905092915050565b600061110682610e61565b915061111183610e61565b9250827fffffffffffffffffffffffffffffffffffffffffffffffffffffffffffffffff0382111561114657611145611098565b5b828201905092915050565b7f4e487b7100000000000000000000000000000000000000000000000000000000600052601260045260246000fd5b600061118b82610e61565b915061119683610e61565b9250826111a6576111a5611151565b5b828204905092915050565b60006111bc82610e61565b91506111c783610e61565b9250817fffffffffffffffffffffffffffffffffffffffffffffffffffffffffffffffff0483118215151615611200576111ff611098565b5b82820290509291505056fea2646970667358221220df7f61d900e163ace1c2ad83fa0c9ab5f49427e4eb704f27c00424dd1370f92664736f6c634300080a0033",
  "immutableReferences": {},
  "source": "pragma solidity ^0.8.4;\r\n \r\n//Safe Math Interface\r\n \r\ncontract SafeMath {\r\n \r\n    function safeAdd(uint a, uint b) public pure returns (uint c) {\r\n        c = a + b;\r\n        require(c >= a);\r\n    }\r\n \r\n    function safeSub(uint a, uint b) public pure returns (uint c) {\r\n        require(b <= a);\r\n        c = a - b;\r\n    }\r\n \r\n    function safeMul(uint a, uint b) public pure returns (uint c) {\r\n        c = a * b;\r\n        require(a == 0 || c / a == b);\r\n    }\r\n \r\n    function safeDiv(uint a, uint b) public pure returns (uint c) {\r\n        require(b > 0);\r\n        c = a / b;\r\n    }\r\n}\r\n \r\n//Actual token contract\r\n\r\n\r\ninterface IERC20 {\r\n  function totalSupply() external view returns (uint256);\r\n\r\n  function balanceOf(address who) external view returns (uint256);\r\n\r\n  function allowance(address owner, address spender)\r\n    external view returns (uint256);\r\n\r\n  function transfer(address to, uint256 value) external returns (bool);\r\n\r\n  function approve(address spender, uint256 value)\r\n    external returns (bool);\r\n\r\n  function transferFrom(address from, address to, uint256 value)\r\n    external returns (bool);\r\n\r\n  event Transfer(\r\n    address indexed from,\r\n    address indexed to,\r\n    uint256 value\r\n  );\r\n\r\n  event Approval(\r\n    address indexed owner,\r\n    address indexed spender,\r\n    uint256 value\r\n  );\r\n}\r\n\r\ncontract YossiToken is IERC20,SafeMath{\r\n    uint256 public _totalSupply;\r\n    uint256 _balanceOf;\r\n    string public _name;\r\n    string public symbol;\r\n    uint8 _decimals=0;\r\n    mapping(address => uint256) _balances;\r\n    mapping(address => mapping (address => uint256)) _allowed;\r\n    \r\n    constructor(){\r\n        _name = \"YossiToken\";\r\n        symbol=\"YTC2\";\r\n        _decimals = 0;\r\n        _totalSupply = 100000;\r\n        _balances[msg.sender] = _totalSupply;\r\n        emit Transfer(address(0), msg.sender, _totalSupply);\r\n    }\r\n    function name() public view virtual returns (string memory){\r\n        return _name;\r\n    }\r\n    function totalSupply() public view returns (uint256) {\r\n        return _totalSupply;\r\n    }\r\n    function balanceOf(address tokenOwner) public view returns (uint) {\r\n        return _balances[tokenOwner];\r\n    }\r\n    function transfer(address to,uint256 value) public returns(bool){\r\n        require(value <= _balances[msg.sender]);\r\n        require(to != address(0));\r\n        _balances[msg.sender] = safeSub(_balances[msg.sender],value);\r\n        _balances[to]=safeAdd(_balances[to],value);\r\n        emit Transfer(msg.sender,to,value);\r\n        return true;\r\n    }\r\n    function allowance(address owner,address spender) public view returns(uint256){\r\n        return _allowed[owner][spender];\r\n\r\n    }\r\n    function approve(address spender,uint256 value) public returns (bool){\r\n        require(spender != address(0));\r\n        _allowed[msg.sender][spender]=value;\r\n        emit Approval(msg.sender, spender, value);\r\n        return true;\r\n    }\r\n    function transferFrom(address from,address to,uint256 value) public returns(bool){\r\n         require(value <= _balances[from]);\r\n        require(value <= _allowed[from][msg.sender]);\r\n        require(to != address(0));\r\n\r\n        _balances[from] = _balances[from]-value;\r\n        _balances[to] = _balances[to]+value;\r\n        _allowed[from][msg.sender] = _allowed[from][msg.sender]-value;\r\n        emit Transfer(from, to, value);\r\n        return true;\r\n    }\r\n    fallback() external{\r\n    }\r\n}\r\n",
  "sourcePath": "C:\\Users\\vrect\\Downloads\\erc20_token\\contracts\\token.sol",
  "compiler": {
    "name": "solc",
    "version": "0.8.10+commit.fc410830.Emscripten.clang"
  },
  "schemaVersion": "3.4.3",
  "updatedAt": "2021-12-11T15:57:07.871Z",
  "networkType": "ethereum",
  "devdoc": {
    "kind": "dev",
    "methods": {},
    "version": 1
  },
  "userdoc": {
    "kind": "user",
    "methods": {},
    "version": 1
  }
}